{
  "contractName": "Func",
  "abi": [
    {
      "constant": true,
      "inputs": [],
      "name": "text",
      "outputs": [
        {
          "name": "",
          "type": "string"
        }
      ],
      "payable": false,
      "stateMutability": "view",
      "type": "function"
    },
    {
      "constant": true,
      "inputs": [],
      "name": "last",
      "outputs": [
        {
          "name": "",
          "type": "address"
        }
      ],
      "payable": false,
      "stateMutability": "view",
      "type": "function"
    },
    {
      "constant": false,
      "inputs": [],
      "name": "setLast",
      "outputs": [],
      "payable": false,
      "stateMutability": "nonpayable",
      "type": "function"
    },
    {
      "constant": false,
      "inputs": [
        {
          "name": "_text",
          "type": "string"
        }
      ],
      "name": "setText",
      "outputs": [],
      "payable": false,
      "stateMutability": "nonpayable",
      "type": "function"
    },
    {
      "constant": false,
      "inputs": [
        {
          "name": "_number",
          "type": "uint256"
        }
      ],
      "name": "setNumber",
      "outputs": [],
      "payable": false,
      "stateMutability": "nonpayable",
      "type": "function"
    },
    {
      "constant": true,
      "inputs": [
        {
          "name": "a",
          "type": "uint256"
        },
        {
          "name": "b",
          "type": "uint256"
        }
      ],
      "name": "sum",
      "outputs": [
        {
          "name": "",
          "type": "uint256"
        }
      ],
      "payable": false,
      "stateMutability": "pure",
      "type": "function"
    },
    {
      "constant": true,
      "inputs": [],
      "name": "bark",
      "outputs": [
        {
          "name": "",
          "type": "string"
        }
      ],
      "payable": false,
      "stateMutability": "pure",
      "type": "function"
    },
    {
      "constant": true,
      "inputs": [],
      "name": "echoSender",
      "outputs": [
        {
          "name": "",
          "type": "address"
        }
      ],
      "payable": false,
      "stateMutability": "view",
      "type": "function"
    }
  ],
  "bytecode": "0x608060405234801561001057600080fd5b506105a5806100206000396000f30060806040526004361061008e576000357c0100000000000000000000000000000000000000000000000000000000900463ffffffff1680631e91f8cb146100935780631f1bd692146100ea5780633fb5c1cb1461017a57806347799da8146101a75780635d3a1f9d146101fe578063864f4a9a14610267578063cad0899b146102f7578063f4a997a814610342575b600080fd5b34801561009f57600080fd5b506100a8610359565b604051808273ffffffffffffffffffffffffffffffffffffffff1673ffffffffffffffffffffffffffffffffffffffff16815260200191505060405180910390f35b3480156100f657600080fd5b506100ff610361565b6040518080602001828103825283818151815260200191508051906020019080838360005b8381101561013f578082015181840152602081019050610124565b50505050905090810190601f16801561016c5780820380516001836020036101000a031916815260200191505b509250505060405180910390f35b34801561018657600080fd5b506101a5600480360381019080803590602001909291905050506103ff565b005b3480156101b357600080fd5b506101bc610409565b604051808273ffffffffffffffffffffffffffffffffffffffff1673ffffffffffffffffffffffffffffffffffffffff16815260200191505060405180910390f35b34801561020a57600080fd5b50610265600480360381019080803590602001908201803590602001908080601f016020809104026020016040519081016040528093929190818152602001838380828437820191505050505050919291929050505061042e565b005b34801561027357600080fd5b5061027c610448565b6040518080602001828103825283818151815260200191508051906020019080838360005b838110156102bc5780820151818401526020810190506102a1565b50505050905090810190601f1680156102e95780820380516001836020036101000a031916815260200191505b509250505060405180910390f35b34801561030357600080fd5b5061032c6004803603810190808035906020019092919080359060200190929190505050610485565b6040518082815260200191505060405180910390f35b34801561034e57600080fd5b50610357610492565b005b600033905090565b60018054600181600116156101000203166002900480601f0160208091040260200160405190810160405280929190818152602001828054600181600116156101000203166002900480156103f75780601f106103cc576101008083540402835291602001916103f7565b820191906000526020600020905b8154815290600101906020018083116103da57829003601f168201915b505050505081565b8060028190555050565b6000809054906101000a900473ffffffffffffffffffffffffffffffffffffffff1681565b80600190805190602001906104449291906104d4565b5050565b60606040805190810160405280600981526020017f4920646f206261726b0000000000000000000000000000000000000000000000815250905090565b6000818301905092915050565b336000806101000a81548173ffffffffffffffffffffffffffffffffffffffff021916908373ffffffffffffffffffffffffffffffffffffffff160217905550565b828054600181600116156101000203166002900490600052602060002090601f016020900481019282601f1061051557805160ff1916838001178555610543565b82800160010185558215610543579182015b82811115610542578251825591602001919060010190610527565b5b5090506105509190610554565b5090565b61057691905b8082111561057257600081600090555060010161055a565b5090565b905600a165627a7a72305820fc8c47ef40a2d045cb45e70e1ddcdd35557ccdf9ff0cb84a8f466c60585bb9680029",
  "source": "pragma solidity ^0.4.23;\n\ncontract Func {\n\n    address public last;\n\n    function setLast() public\n    {\n        last = msg.sender;\n    }\n\n    string public text;\n\n    function setText(string _text)\n    {\n        text = _text;\n    }\n\n    uint256 number;\n    function setNumber(uint256 _number) public\n    {\n        number = _number;\n    }\n\n    function sum(uint256 a, uint256 b) public pure returns (uint256)\n    {\n        return a + b;\n    }\n\n    function bark() public pure returns (string)\n    {\n        return \"I do bark\";\n    }\n\n    function echoSender() public view returns (address)\n    {\n        return msg.sender;\n    }\n\n}",
  "sourcePath": "/home/pr/projects/ethworkshops/ethworkshops/ethhack/ethhack/contracts/Func.sol",
  "compiler": {
    "name": "solc",
    "version": "0.4.23+commit.124ca40d.Emscripten.clang"
  },
  "schemaVersion": "2.0.0",
  "updatedAt": "2018-05-18T13:48:21.967Z"
}